{
  "_format": "hh-sol-artifact-1",
  "contractName": "FlashloanArbitrage",
  "sourceName": "contracts/FlashloanArbitrage.sol",
  "abi": [
    {
      "inputs": [
        {
          "internalType": "address",
          "name": "provider_",
          "type": "address"
        },
        {
          "internalType": "address",
          "name": "routerA_",
          "type": "address"
        },
        {
          "internalType": "address",
          "name": "routerB_",
          "type": "address"
        }
      ],
      "stateMutability": "nonpayable",
      "type": "constructor"
    },
    {
      "inputs": [],
      "name": "ADDRESSES_PROVIDER",
      "outputs": [
        {
          "internalType": "contract IPoolAddressesProvider",
          "name": "",
          "type": "address"
        }
      ],
      "stateMutability": "view",
      "type": "function"
    },
    {
      "inputs": [],
      "name": "POOL",
      "outputs": [
        {
          "internalType": "contract IPool",
          "name": "",
          "type": "address"
        }
      ],
      "stateMutability": "view",
      "type": "function"
    },
    {
      "inputs": [
        {
          "internalType": "address",
          "name": "asset",
          "type": "address"
        },
        {
          "internalType": "uint256",
          "name": "amount",
          "type": "uint256"
        },
        {
          "internalType": "address[]",
          "name": "pathA",
          "type": "address[]"
        },
        {
          "internalType": "address[]",
          "name": "pathB",
          "type": "address[]"
        }
      ],
      "name": "executeFlashloan",
      "outputs": [],
      "stateMutability": "nonpayable",
      "type": "function"
    },
    {
      "inputs": [
        {
          "internalType": "address",
          "name": "asset",
          "type": "address"
        },
        {
          "internalType": "uint256",
          "name": "amount",
          "type": "uint256"
        },
        {
          "internalType": "uint256",
          "name": "premium",
          "type": "uint256"
        },
        {
          "internalType": "address",
          "name": "",
          "type": "address"
        },
        {
          "internalType": "bytes",
          "name": "data",
          "type": "bytes"
        }
      ],
      "name": "executeOperation",
      "outputs": [
        {
          "internalType": "bool",
          "name": "",
          "type": "bool"
        }
      ],
      "stateMutability": "nonpayable",
      "type": "function"
    },
    {
      "inputs": [],
      "name": "owner",
      "outputs": [
        {
          "internalType": "address",
          "name": "",
          "type": "address"
        }
      ],
      "stateMutability": "view",
      "type": "function"
    },
    {
      "inputs": [],
      "name": "routerA",
      "outputs": [
        {
          "internalType": "contract IUniswapV2Router02",
          "name": "",
          "type": "address"
        }
      ],
      "stateMutability": "view",
      "type": "function"
    },
    {
      "inputs": [],
      "name": "routerB",
      "outputs": [
        {
          "internalType": "contract IUniswapV2Router02",
          "name": "",
          "type": "address"
        }
      ],
      "stateMutability": "view",
      "type": "function"
    },
    {
      "inputs": [
        {
          "internalType": "address",
          "name": "token",
          "type": "address"
        }
      ],
      "name": "withdraw",
      "outputs": [],
      "stateMutability": "nonpayable",
      "type": "function"
    },
    {
      "stateMutability": "payable",
      "type": "receive"
    }
  ],
  "bytecode": "0x60806040523480156200001157600080fd5b5060405162001a7938038062001a79833981810160405281019062000037919062000281565b336000806101000a81548173ffffffffffffffffffffffffffffffffffffffff021916908373ffffffffffffffffffffffffffffffffffffffff16021790555082600160006101000a81548173ffffffffffffffffffffffffffffffffffffffff021916908373ffffffffffffffffffffffffffffffffffffffff160217905550600160009054906101000a900473ffffffffffffffffffffffffffffffffffffffff1673ffffffffffffffffffffffffffffffffffffffff1663026b1d5f6040518163ffffffff1660e01b8152600401602060405180830381865afa15801562000126573d6000803e3d6000fd5b505050506040513d601f19601f820116820180604052508101906200014c9190620002dd565b600260006101000a81548173ffffffffffffffffffffffffffffffffffffffff021916908373ffffffffffffffffffffffffffffffffffffffff16021790555081600360006101000a81548173ffffffffffffffffffffffffffffffffffffffff021916908373ffffffffffffffffffffffffffffffffffffffff16021790555080600460006101000a81548173ffffffffffffffffffffffffffffffffffffffff021916908373ffffffffffffffffffffffffffffffffffffffff1602179055505050506200030f565b600080fd5b600073ffffffffffffffffffffffffffffffffffffffff82169050919050565b600062000249826200021c565b9050919050565b6200025b816200023c565b81146200026757600080fd5b50565b6000815190506200027b8162000250565b92915050565b6000806000606084860312156200029d576200029c62000217565b5b6000620002ad868287016200026a565b9350506020620002c0868287016200026a565b9250506040620002d3868287016200026a565b9150509250925092565b600060208284031215620002f657620002f562000217565b5b600062000306848285016200026a565b91505092915050565b61175a806200031f6000396000f3fe60806040526004361061007f5760003560e01c806365434da71161004e57806365434da7146101475780637535d246146101725780638da5cb5b1461019d578063e319855a146101c857610086565b80630542975c1461008b5780631b11d0ff146100b657806346b5f0d6146100f357806351cff8d91461011e57610086565b3661008657005b600080fd5b34801561009757600080fd5b506100a06101f1565b6040516100ad9190610a96565b60405180910390f35b3480156100c257600080fd5b506100dd60048036038101906100d89190610b9e565b610217565b6040516100ea9190610c53565b60405180910390f35b3480156100ff57600080fd5b50610108610638565b6040516101159190610c8f565b60405180910390f35b34801561012a57600080fd5b5061014560048036038101906101409190610caa565b61065e565b005b34801561015357600080fd5b5061015c610850565b6040516101699190610c8f565b60405180910390f35b34801561017e57600080fd5b50610187610876565b6040516101949190610cf8565b60405180910390f35b3480156101a957600080fd5b506101b261089c565b6040516101bf9190610d22565b60405180910390f35b3480156101d457600080fd5b506101ef60048036038101906101ea9190610d93565b6108c0565b005b600160009054906101000a900473ffffffffffffffffffffffffffffffffffffffff1681565b6000806000848481019061022b9190610f89565b915091506000878961023d9190611030565b90508973ffffffffffffffffffffffffffffffffffffffff1663095ea7b3600360009054906101000a900473ffffffffffffffffffffffffffffffffffffffff168b6040518363ffffffff1660e01b815260040161029c929190611073565b6020604051808303816000875af11580156102bb573d6000803e3d6000fd5b505050506040513d601f19601f820116820180604052508101906102df91906110c8565b50600360009054906101000a900473ffffffffffffffffffffffffffffffffffffffff1673ffffffffffffffffffffffffffffffffffffffff166338ed17398a60018630426040518663ffffffff1660e01b81526004016103449594939291906111ee565b6000604051808303816000875af1158015610363573d6000803e3d6000fd5b505050506040513d6000823e3d601f19601f8201168201806040525081019061038c9190611320565b506000836001855161039e9190611369565b815181106103af576103ae61139d565b5b6020026020010151905060008173ffffffffffffffffffffffffffffffffffffffff166370a08231306040518263ffffffff1660e01b81526004016103f49190610d22565b602060405180830381865afa158015610411573d6000803e3d6000fd5b505050506040513d601f19601f8201168201806040525081019061043591906113cc565b90508173ffffffffffffffffffffffffffffffffffffffff1663095ea7b3600460009054906101000a900473ffffffffffffffffffffffffffffffffffffffff16836040518363ffffffff1660e01b8152600401610494929190611073565b6020604051808303816000875af11580156104b3573d6000803e3d6000fd5b505050506040513d601f19601f820116820180604052508101906104d791906110c8565b50600460009054906101000a900473ffffffffffffffffffffffffffffffffffffffff1673ffffffffffffffffffffffffffffffffffffffff166338ed173982858730426040518663ffffffff1660e01b815260040161053b9594939291906113f9565b6000604051808303816000875af115801561055a573d6000803e3d6000fd5b505050506040513d6000823e3d601f19601f820116820180604052508101906105839190611320565b508b73ffffffffffffffffffffffffffffffffffffffff1663095ea7b3600260009054906101000a900473ffffffffffffffffffffffffffffffffffffffff16856040518363ffffffff1660e01b81526004016105e1929190611073565b6020604051808303816000875af1158015610600573d6000803e3d6000fd5b505050506040513d601f19601f8201168201806040525081019061062491906110c8565b506001955050505050509695505050505050565b600460009054906101000a900473ffffffffffffffffffffffffffffffffffffffff1681565b60008054906101000a900473ffffffffffffffffffffffffffffffffffffffff1673ffffffffffffffffffffffffffffffffffffffff163373ffffffffffffffffffffffffffffffffffffffff16146106ec576040517f08c379a00000000000000000000000000000000000000000000000000000000081526004016106e3906114b0565b60405180910390fd5b60008173ffffffffffffffffffffffffffffffffffffffff166370a08231306040518263ffffffff1660e01b81526004016107279190610d22565b602060405180830381865afa158015610744573d6000803e3d6000fd5b505050506040513d601f19601f8201168201806040525081019061076891906113cc565b9050600081116107ad576040517f08c379a00000000000000000000000000000000000000000000000000000000081526004016107a49061151c565b60405180910390fd5b8173ffffffffffffffffffffffffffffffffffffffff1663a9059cbb60008054906101000a900473ffffffffffffffffffffffffffffffffffffffff16836040518363ffffffff1660e01b8152600401610808929190611073565b6020604051808303816000875af1158015610827573d6000803e3d6000fd5b505050506040513d601f19601f8201168201806040525081019061084b91906110c8565b505050565b600360009054906101000a900473ffffffffffffffffffffffffffffffffffffffff1681565b600260009054906101000a900473ffffffffffffffffffffffffffffffffffffffff1681565b60008054906101000a900473ffffffffffffffffffffffffffffffffffffffff1681565b60008054906101000a900473ffffffffffffffffffffffffffffffffffffffff1673ffffffffffffffffffffffffffffffffffffffff163373ffffffffffffffffffffffffffffffffffffffff161461094e576040517f08c379a0000000000000000000000000000000000000000000000000000000008152600401610945906114b0565b60405180910390fd5b60008484848460405160200161096794939291906115c7565b6040516020818303038152906040529050600260009054906101000a900473ffffffffffffffffffffffffffffffffffffffff1673ffffffffffffffffffffffffffffffffffffffff166342b0b77c3089898560006040518663ffffffff1660e01b81526004016109dc9594939291906116ca565b600060405180830381600087803b1580156109f657600080fd5b505af1158015610a0a573d6000803e3d6000fd5b5050505050505050505050565b600073ffffffffffffffffffffffffffffffffffffffff82169050919050565b6000819050919050565b6000610a5c610a57610a5284610a17565b610a37565b610a17565b9050919050565b6000610a6e82610a41565b9050919050565b6000610a8082610a63565b9050919050565b610a9081610a75565b82525050565b6000602082019050610aab6000830184610a87565b92915050565b6000604051905090565b600080fd5b600080fd5b6000610ad082610a17565b9050919050565b610ae081610ac5565b8114610aeb57600080fd5b50565b600081359050610afd81610ad7565b92915050565b6000819050919050565b610b1681610b03565b8114610b2157600080fd5b50565b600081359050610b3381610b0d565b92915050565b600080fd5b600080fd5b600080fd5b60008083601f840112610b5e57610b5d610b39565b5b8235905067ffffffffffffffff811115610b7b57610b7a610b3e565b5b602083019150836001820283011115610b9757610b96610b43565b5b9250929050565b60008060008060008060a08789031215610bbb57610bba610abb565b5b6000610bc989828a01610aee565b9650506020610bda89828a01610b24565b9550506040610beb89828a01610b24565b9450506060610bfc89828a01610aee565b935050608087013567ffffffffffffffff811115610c1d57610c1c610ac0565b5b610c2989828a01610b48565b92509250509295509295509295565b60008115159050919050565b610c4d81610c38565b82525050565b6000602082019050610c686000830184610c44565b92915050565b6000610c7982610a63565b9050919050565b610c8981610c6e565b82525050565b6000602082019050610ca46000830184610c80565b92915050565b600060208284031215610cc057610cbf610abb565b5b6000610cce84828501610aee565b91505092915050565b6000610ce282610a63565b9050919050565b610cf281610cd7565b82525050565b6000602082019050610d0d6000830184610ce9565b92915050565b610d1c81610ac5565b82525050565b6000602082019050610d376000830184610d13565b92915050565b60008083601f840112610d5357610d52610b39565b5b8235905067ffffffffffffffff811115610d7057610d6f610b3e565b5b602083019150836020820283011115610d8c57610d8b610b43565b5b9250929050565b60008060008060008060808789031215610db057610daf610abb565b5b6000610dbe89828a01610aee565b9650506020610dcf89828a01610b24565b955050604087013567ffffffffffffffff811115610df057610def610ac0565b5b610dfc89828a01610d3d565b9450945050606087013567ffffffffffffffff811115610e1f57610e1e610ac0565b5b610e2b89828a01610d3d565b92509250509295509295509295565b6000601f19601f8301169050919050565b7f4e487b7100000000000000000000000000000000000000000000000000000000600052604160045260246000fd5b610e8382610e3a565b810181811067ffffffffffffffff82111715610ea257610ea1610e4b565b5b80604052505050565b6000610eb5610ab1565b9050610ec18282610e7a565b919050565b600067ffffffffffffffff821115610ee157610ee0610e4b565b5b602082029050602081019050919050565b6000610f05610f0084610ec6565b610eab565b90508083825260208201905060208402830185811115610f2857610f27610b43565b5b835b81811015610f515780610f3d8882610aee565b845260208401935050602081019050610f2a565b5050509392505050565b600082601f830112610f7057610f6f610b39565b5b8135610f80848260208601610ef2565b91505092915050565b60008060408385031215610fa057610f9f610abb565b5b600083013567ffffffffffffffff811115610fbe57610fbd610ac0565b5b610fca85828601610f5b565b925050602083013567ffffffffffffffff811115610feb57610fea610ac0565b5b610ff785828601610f5b565b9150509250929050565b7f4e487b7100000000000000000000000000000000000000000000000000000000600052601160045260246000fd5b600061103b82610b03565b915061104683610b03565b925082820190508082111561105e5761105d611001565b5b92915050565b61106d81610b03565b82525050565b60006040820190506110886000830185610d13565b6110956020830184611064565b9392505050565b6110a581610c38565b81146110b057600080fd5b50565b6000815190506110c28161109c565b92915050565b6000602082840312156110de576110dd610abb565b5b60006110ec848285016110b3565b91505092915050565b6000819050919050565b600061111a611115611110846110f5565b610a37565b610b03565b9050919050565b61112a816110ff565b82525050565b600081519050919050565b600082825260208201905092915050565b6000819050602082019050919050565b61116581610ac5565b82525050565b6000611177838361115c565b60208301905092915050565b6000602082019050919050565b600061119b82611130565b6111a5818561113b565b93506111b08361114c565b8060005b838110156111e15781516111c8888261116b565b97506111d383611183565b9250506001810190506111b4565b5085935050505092915050565b600060a0820190506112036000830188611064565b6112106020830187611121565b81810360408301526112228186611190565b90506112316060830185610d13565b61123e6080830184611064565b9695505050505050565b600067ffffffffffffffff82111561126357611262610e4b565b5b602082029050602081019050919050565b60008151905061128381610b0d565b92915050565b600061129c61129784611248565b610eab565b905080838252602082019050602084028301858111156112bf576112be610b43565b5b835b818110156112e857806112d48882611274565b8452602084019350506020810190506112c1565b5050509392505050565b600082601f83011261130757611306610b39565b5b8151611317848260208601611289565b91505092915050565b60006020828403121561133657611335610abb565b5b600082015167ffffffffffffffff81111561135457611353610ac0565b5b611360848285016112f2565b91505092915050565b600061137482610b03565b915061137f83610b03565b925082820390508181111561139757611396611001565b5b92915050565b7f4e487b7100000000000000000000000000000000000000000000000000000000600052603260045260246000fd5b6000602082840312156113e2576113e1610abb565b5b60006113f084828501611274565b91505092915050565b600060a08201905061140e6000830188611064565b61141b6020830187611064565b818103604083015261142d8186611190565b905061143c6060830185610d13565b6114496080830184611064565b9695505050505050565b600082825260208201905092915050565b7f4e6f74206f776e65720000000000000000000000000000000000000000000000600082015250565b600061149a600983611453565b91506114a582611464565b602082019050919050565b600060208201905081810360008301526114c98161148d565b9050919050565b7f4e6f7468696e6720746f20776974686472617700000000000000000000000000600082015250565b6000611506601383611453565b9150611511826114d0565b602082019050919050565b60006020820190508181036000830152611535816114f9565b9050919050565b6000819050919050565b60006115556020840184610aee565b905092915050565b6000602082019050919050565b6000611576838561113b565b93506115818261153c565b8060005b858110156115ba576115978284611546565b6115a1888261116b565b97506115ac8361155d565b925050600181019050611585565b5085925050509392505050565b600060408201905081810360008301526115e281868861156a565b905081810360208301526115f781848661156a565b905095945050505050565b600081519050919050565b600082825260208201905092915050565b60005b8381101561163c578082015181840152602081019050611621565b60008484015250505050565b600061165382611602565b61165d818561160d565b935061166d81856020860161161e565b61167681610e3a565b840191505092915050565b6000819050919050565b600061ffff82169050919050565b60006116b46116af6116aa84611681565b610a37565b61168b565b9050919050565b6116c481611699565b82525050565b600060a0820190506116df6000830188610d13565b6116ec6020830187610d13565b6116f96040830186611064565b818103606083015261170b8185611648565b905061171a60808301846116bb565b969550505050505056fea2646970667358221220f4f72853150991360f1597e7cb6ca93fef2978bcaa867041d28c446c94569dff64736f6c63430008140033",
  "linkReferences": {},
  "deployedLinkReferences": {}
}